{
    "contractName": "Sales",
    "abi": [
        {
            "anonymous": false,
            "inputs": [
                {
                    "indexed": true,
                    "internalType": "address",
                    "name": "owner",
                    "type": "address"
                },
                {
                    "indexed": true,
                    "internalType": "address",
                    "name": "approved",
                    "type": "address"
                },
                {
                    "indexed": true,
                    "internalType": "uint256",
                    "name": "tokenId",
                    "type": "uint256"
                }
            ],
            "name": "Approval",
            "type": "event"
        },
        {
            "anonymous": false,
            "inputs": [
                {
                    "indexed": true,
                    "internalType": "address",
                    "name": "owner",
                    "type": "address"
                },
                {
                    "indexed": true,
                    "internalType": "address",
                    "name": "operator",
                    "type": "address"
                },
                {
                    "indexed": false,
                    "internalType": "bool",
                    "name": "approved",
                    "type": "bool"
                }
            ],
            "name": "ApprovalForAll",
            "type": "event"
        },
        {
            "anonymous": false,
            "inputs": [
                {
                    "indexed": true,
                    "internalType": "uint256",
                    "name": "_attrId",
                    "type": "uint256"
                },
                {
                    "indexed": true,
                    "internalType": "uint256",
                    "name": "_tokenId",
                    "type": "uint256"
                },
                {
                    "indexed": true,
                    "internalType": "address",
                    "name": "owner",
                    "type": "address"
                }
            ],
            "name": "Atach",
            "type": "event"
        },
        {
            "anonymous": false,
            "inputs": [
                {
                    "indexed": true,
                    "internalType": "address",
                    "name": "_owner",
                    "type": "address"
                },
                {
                    "indexed": true,
                    "internalType": "address",
                    "name": "_approved",
                    "type": "address"
                },
                {
                    "indexed": true,
                    "internalType": "uint256",
                    "name": "_tokenId",
                    "type": "uint256"
                }
            ],
            "name": "AttrApproval",
            "type": "event"
        },
        {
            "anonymous": false,
            "inputs": [
                {
                    "indexed": true,
                    "internalType": "address",
                    "name": "_owner",
                    "type": "address"
                },
                {
                    "indexed": true,
                    "internalType": "address",
                    "name": "_operator",
                    "type": "address"
                },
                {
                    "indexed": false,
                    "internalType": "bool",
                    "name": "_approved",
                    "type": "bool"
                }
            ],
            "name": "AttrApprovalForAll",
            "type": "event"
        },
        {
            "anonymous": false,
            "inputs": [
                {
                    "indexed": true,
                    "internalType": "address",
                    "name": "_from",
                    "type": "address"
                },
                {
                    "indexed": true,
                    "internalType": "address",
                    "name": "_to",
                    "type": "address"
                },
                {
                    "indexed": true,
                    "internalType": "uint256",
                    "name": "_tokenId",
                    "type": "uint256"
                }
            ],
            "name": "AttrTransfer",
            "type": "event"
        },
        {
            "anonymous": false,
            "inputs": [
                {
                    "indexed": true,
                    "internalType": "uint256",
                    "name": "_attrId",
                    "type": "uint256"
                },
                {
                    "indexed": true,
                    "internalType": "uint256",
                    "name": "_tokenId",
                    "type": "uint256"
                }
            ],
            "name": "Dettach",
            "type": "event"
        },
        {
            "anonymous": false,
            "inputs": [
                {
                    "indexed": true,
                    "internalType": "address",
                    "name": "previousOwner",
                    "type": "address"
                },
                {
                    "indexed": true,
                    "internalType": "address",
                    "name": "newOwner",
                    "type": "address"
                }
            ],
            "name": "OwnershipTransferred",
            "type": "event"
        },
        {
            "anonymous": false,
            "inputs": [
                {
                    "indexed": true,
                    "internalType": "address",
                    "name": "from",
                    "type": "address"
                },
                {
                    "indexed": true,
                    "internalType": "address",
                    "name": "to",
                    "type": "address"
                },
                {
                    "indexed": true,
                    "internalType": "uint256",
                    "name": "tokenId",
                    "type": "uint256"
                }
            ],
            "name": "Transfer",
            "type": "event"
        },
        {
            "inputs": [
                {
                    "internalType": "address",
                    "name": "",
                    "type": "address"
                }
            ],
            "name": "addressMintedBalance",
            "outputs": [
                {
                    "internalType": "uint32",
                    "name": "",
                    "type": "uint32"
                }
            ],
            "stateMutability": "view",
            "type": "function"
        },
        {
            "inputs": [
                {
                    "internalType": "address",
                    "name": "to",
                    "type": "address"
                },
                {
                    "internalType": "uint256",
                    "name": "tokenId",
                    "type": "uint256"
                }
            ],
            "name": "approve",
            "outputs": [],
            "stateMutability": "nonpayable",
            "type": "function"
        },
        {
            "inputs": [
                {
                    "internalType": "address",
                    "name": "_approved",
                    "type": "address"
                },
                {
                    "internalType": "uint256",
                    "name": "_attrId",
                    "type": "uint256"
                }
            ],
            "name": "approveAttr",
            "outputs": [],
            "stateMutability": "payable",
            "type": "function"
        },
        {
            "inputs": [
                {
                    "internalType": "uint256",
                    "name": "_attrId",
                    "type": "uint256"
                },
                {
                    "internalType": "uint256",
                    "name": "_tokenId",
                    "type": "uint256"
                }
            ],
            "name": "atach",
            "outputs": [],
            "stateMutability": "payable",
            "type": "function"
        },
        {
            "inputs": [
                {
                    "internalType": "uint256",
                    "name": "_attrId",
                    "type": "uint256"
                }
            ],
            "name": "atachedTo",
            "outputs": [
                {
                    "internalType": "uint256",
                    "name": "",
                    "type": "uint256"
                }
            ],
            "stateMutability": "view",
            "type": "function"
        },
        {
            "inputs": [
                {
                    "internalType": "address",
                    "name": "_owner",
                    "type": "address"
                }
            ],
            "name": "attrBalanceOf",
            "outputs": [
                {
                    "internalType": "uint256",
                    "name": "",
                    "type": "uint256"
                }
            ],
            "stateMutability": "view",
            "type": "function"
        },
        {
            "inputs": [
                {
                    "internalType": "address",
                    "name": "_from",
                    "type": "address"
                },
                {
                    "internalType": "address",
                    "name": "_to",
                    "type": "address"
                },
                {
                    "internalType": "uint256",
                    "name": "_attrId",
                    "type": "uint256"
                }
            ],
            "name": "attrSafeTransferFrom",
            "outputs": [],
            "stateMutability": "payable",
            "type": "function"
        },
        {
            "inputs": [
                {
                    "internalType": "address",
                    "name": "_from",
                    "type": "address"
                },
                {
                    "internalType": "address",
                    "name": "_to",
                    "type": "address"
                },
                {
                    "internalType": "uint256",
                    "name": "_attrId",
                    "type": "uint256"
                },
                {
                    "internalType": "bytes",
                    "name": "data",
                    "type": "bytes"
                }
            ],
            "name": "attrSafeTransferFrom",
            "outputs": [],
            "stateMutability": "payable",
            "type": "function"
        },
        {
            "inputs": [
                {
                    "internalType": "address",
                    "name": "_from",
                    "type": "address"
                },
                {
                    "internalType": "address",
                    "name": "_to",
                    "type": "address"
                },
                {
                    "internalType": "uint256",
                    "name": "_attrId",
                    "type": "uint256"
                }
            ],
            "name": "attrTransferFrom",
            "outputs": [],
            "stateMutability": "payable",
            "type": "function"
        },
        {
            "inputs": [
                {
                    "internalType": "uint256",
                    "name": "",
                    "type": "uint256"
                }
            ],
            "name": "attrs",
            "outputs": [
                {
                    "internalType": "enum TraitType",
                    "name": "trait_type",
                    "type": "uint8"
                },
                {
                    "internalType": "uint8",
                    "name": "value",
                    "type": "uint8"
                }
            ],
            "stateMutability": "view",
            "type": "function"
        },
        {
            "inputs": [
                {
                    "internalType": "uint256",
                    "name": "_tokenId",
                    "type": "uint256"
                }
            ],
            "name": "attrsOf",
            "outputs": [
                {
                    "internalType": "uint256[]",
                    "name": "",
                    "type": "uint256[]"
                }
            ],
            "stateMutability": "view",
            "type": "function"
        },
        {
            "inputs": [
                {
                    "internalType": "address",
                    "name": "owner",
                    "type": "address"
                }
            ],
            "name": "balanceOf",
            "outputs": [
                {
                    "internalType": "uint256",
                    "name": "",
                    "type": "uint256"
                }
            ],
            "stateMutability": "view",
            "type": "function"
        },
        {
            "inputs": [],
            "name": "baseURI",
            "outputs": [
                {
                    "internalType": "string",
                    "name": "",
                    "type": "string"
                }
            ],
            "stateMutability": "view",
            "type": "function"
        },
        {
            "inputs": [
                {
                    "internalType": "uint256",
                    "name": "_attrId",
                    "type": "uint256"
                }
            ],
            "name": "dettach",
            "outputs": [],
            "stateMutability": "payable",
            "type": "function"
        },
        {
            "inputs": [
                {
                    "internalType": "bytes",
                    "name": "_signature",
                    "type": "bytes"
                },
                {
                    "internalType": "string",
                    "name": "nonce",
                    "type": "string"
                }
            ],
            "name": "freeMint",
            "outputs": [],
            "stateMutability": "nonpayable",
            "type": "function"
        },
        {
            "inputs": [
                {
                    "internalType": "uint256",
                    "name": "tokenId",
                    "type": "uint256"
                }
            ],
            "name": "getApproved",
            "outputs": [
                {
                    "internalType": "address",
                    "name": "",
                    "type": "address"
                }
            ],
            "stateMutability": "view",
            "type": "function"
        },
        {
            "inputs": [
                {
                    "internalType": "uint256",
                    "name": "_attrId",
                    "type": "uint256"
                }
            ],
            "name": "getAttrApproved",
            "outputs": [
                {
                    "internalType": "address",
                    "name": "",
                    "type": "address"
                }
            ],
            "stateMutability": "view",
            "type": "function"
        },
        {
            "inputs": [
                {
                    "internalType": "address",
                    "name": "owner",
                    "type": "address"
                },
                {
                    "internalType": "address",
                    "name": "operator",
                    "type": "address"
                }
            ],
            "name": "isApprovedForAll",
            "outputs": [
                {
                    "internalType": "bool",
                    "name": "",
                    "type": "bool"
                }
            ],
            "stateMutability": "view",
            "type": "function"
        },
        {
            "inputs": [
                {
                    "internalType": "address",
                    "name": "_owner",
                    "type": "address"
                },
                {
                    "internalType": "address",
                    "name": "_operator",
                    "type": "address"
                }
            ],
            "name": "isAttrApprovedForAll",
            "outputs": [
                {
                    "internalType": "bool",
                    "name": "",
                    "type": "bool"
                }
            ],
            "stateMutability": "view",
            "type": "function"
        },
        {
            "inputs": [
                {
                    "internalType": "uint32",
                    "name": "_mintAmount",
                    "type": "uint32"
                },
                {
                    "internalType": "bytes",
                    "name": "_signature",
                    "type": "bytes"
                }
            ],
            "name": "mint",
            "outputs": [],
            "stateMutability": "payable",
            "type": "function"
        },
        {
            "inputs": [
                {
                    "internalType": "uint32",
                    "name": "_mintAmount",
                    "type": "uint32"
                }
            ],
            "name": "mint",
            "outputs": [],
            "stateMutability": "payable",
            "type": "function"
        },
        {
            "inputs": [],
            "name": "mintingEnabled",
            "outputs": [
                {
                    "internalType": "bool",
                    "name": "",
                    "type": "bool"
                }
            ],
            "stateMutability": "view",
            "type": "function"
        },
        {
            "inputs": [],
            "name": "name",
            "outputs": [
                {
                    "internalType": "string",
                    "name": "",
                    "type": "string"
                }
            ],
            "stateMutability": "view",
            "type": "function"
        },
        {
            "inputs": [],
            "name": "owner",
            "outputs": [
                {
                    "internalType": "address",
                    "name": "",
                    "type": "address"
                }
            ],
            "stateMutability": "view",
            "type": "function"
        },
        {
            "inputs": [
                {
                    "internalType": "uint8",
                    "name": "amount",
                    "type": "uint8"
                }
            ],
            "name": "ownerMintFromReserve",
            "outputs": [],
            "stateMutability": "nonpayable",
            "type": "function"
        },
        {
            "inputs": [
                {
                    "internalType": "uint256",
                    "name": "tokenId",
                    "type": "uint256"
                }
            ],
            "name": "ownerOf",
            "outputs": [
                {
                    "internalType": "address",
                    "name": "",
                    "type": "address"
                }
            ],
            "stateMutability": "view",
            "type": "function"
        },
        {
            "inputs": [
                {
                    "internalType": "uint256",
                    "name": "_attrId",
                    "type": "uint256"
                }
            ],
            "name": "ownerOfAttr",
            "outputs": [
                {
                    "internalType": "address",
                    "name": "",
                    "type": "address"
                }
            ],
            "stateMutability": "view",
            "type": "function"
        },
        {
            "inputs": [],
            "name": "preMintingEnabled",
            "outputs": [
                {
                    "internalType": "bool",
                    "name": "",
                    "type": "bool"
                }
            ],
            "stateMutability": "view",
            "type": "function"
        },
        {
            "inputs": [
                {
                    "internalType": "uint256",
                    "name": "tokenId",
                    "type": "uint256"
                }
            ],
            "name": "printAttributes",
            "outputs": [
                {
                    "internalType": "string",
                    "name": "",
                    "type": "string"
                }
            ],
            "stateMutability": "view",
            "type": "function"
        },
        {
            "inputs": [],
            "name": "renounceOwnership",
            "outputs": [],
            "stateMutability": "nonpayable",
            "type": "function"
        },
        {
            "inputs": [
                {
                    "internalType": "uint256",
                    "name": "_attrId",
                    "type": "uint256"
                },
                {
                    "internalType": "uint256",
                    "name": "_tokenId",
                    "type": "uint256"
                }
            ],
            "name": "replaceAttr",
            "outputs": [],
            "stateMutability": "payable",
            "type": "function"
        },
        {
            "inputs": [],
            "name": "reserve",
            "outputs": [
                {
                    "internalType": "uint8",
                    "name": "",
                    "type": "uint8"
                }
            ],
            "stateMutability": "view",
            "type": "function"
        },
        {
            "inputs": [
                {
                    "internalType": "uint256",
                    "name": "_tokenId",
                    "type": "uint256"
                },
                {
                    "internalType": "uint256",
                    "name": "_salePrice",
                    "type": "uint256"
                }
            ],
            "name": "royaltyInfo",
            "outputs": [
                {
                    "internalType": "address",
                    "name": "receiver",
                    "type": "address"
                },
                {
                    "internalType": "uint256",
                    "name": "royaltyAmount",
                    "type": "uint256"
                }
            ],
            "stateMutability": "view",
            "type": "function"
        },
        {
            "inputs": [
                {
                    "internalType": "address",
                    "name": "from",
                    "type": "address"
                },
                {
                    "internalType": "address",
                    "name": "to",
                    "type": "address"
                },
                {
                    "internalType": "uint256",
                    "name": "tokenId",
                    "type": "uint256"
                }
            ],
            "name": "safeTransferFrom",
            "outputs": [],
            "stateMutability": "nonpayable",
            "type": "function"
        },
        {
            "inputs": [
                {
                    "internalType": "address",
                    "name": "from",
                    "type": "address"
                },
                {
                    "internalType": "address",
                    "name": "to",
                    "type": "address"
                },
                {
                    "internalType": "uint256",
                    "name": "tokenId",
                    "type": "uint256"
                },
                {
                    "internalType": "bytes",
                    "name": "_data",
                    "type": "bytes"
                }
            ],
            "name": "safeTransferFrom",
            "outputs": [],
            "stateMutability": "nonpayable",
            "type": "function"
        },
        {
            "inputs": [
                {
                    "internalType": "address",
                    "name": "operator",
                    "type": "address"
                },
                {
                    "internalType": "bool",
                    "name": "approved",
                    "type": "bool"
                }
            ],
            "name": "setApprovalForAll",
            "outputs": [],
            "stateMutability": "nonpayable",
            "type": "function"
        },
        {
            "inputs": [
                {
                    "internalType": "address",
                    "name": "_operator",
                    "type": "address"
                },
                {
                    "internalType": "bool",
                    "name": "_approved",
                    "type": "bool"
                }
            ],
            "name": "setAttrApprovalForAll",
            "outputs": [],
            "stateMutability": "nonpayable",
            "type": "function"
        },
        {
            "inputs": [
                {
                    "internalType": "string",
                    "name": "_newBaseURI",
                    "type": "string"
                }
            ],
            "name": "setBaseURI",
            "outputs": [],
            "stateMutability": "nonpayable",
            "type": "function"
        },
        {
            "inputs": [
                {
                    "internalType": "bytes4",
                    "name": "interfaceId",
                    "type": "bytes4"
                }
            ],
            "name": "supportsInterface",
            "outputs": [
                {
                    "internalType": "bool",
                    "name": "",
                    "type": "bool"
                }
            ],
            "stateMutability": "view",
            "type": "function"
        },
        {
            "inputs": [],
            "name": "symbol",
            "outputs": [
                {
                    "internalType": "string",
                    "name": "",
                    "type": "string"
                }
            ],
            "stateMutability": "view",
            "type": "function"
        },
        {
            "inputs": [],
            "name": "toggleMinting",
            "outputs": [],
            "stateMutability": "nonpayable",
            "type": "function"
        },
        {
            "inputs": [],
            "name": "toggleOnlyWhitelisted",
            "outputs": [],
            "stateMutability": "nonpayable",
            "type": "function"
        },
        {
            "inputs": [
                {
                    "internalType": "uint256",
                    "name": "tokenId",
                    "type": "uint256"
                }
            ],
            "name": "tokenURI",
            "outputs": [
                {
                    "internalType": "string",
                    "name": "",
                    "type": "string"
                }
            ],
            "stateMutability": "view",
            "type": "function"
        },
        {
            "inputs": [],
            "name": "totalSupply",
            "outputs": [
                {
                    "internalType": "uint256",
                    "name": "",
                    "type": "uint256"
                }
            ],
            "stateMutability": "view",
            "type": "function"
        },
        {
            "inputs": [
                {
                    "internalType": "address",
                    "name": "from",
                    "type": "address"
                },
                {
                    "internalType": "address",
                    "name": "to",
                    "type": "address"
                },
                {
                    "internalType": "uint256",
                    "name": "tokenId",
                    "type": "uint256"
                }
            ],
            "name": "transferFrom",
            "outputs": [],
            "stateMutability": "nonpayable",
            "type": "function"
        },
        {
            "inputs": [
                {
                    "internalType": "address",
                    "name": "newOwner",
                    "type": "address"
                }
            ],
            "name": "transferOwnership",
            "outputs": [],
            "stateMutability": "nonpayable",
            "type": "function"
        },
        {
            "inputs": [
                {
                    "internalType": "bytes",
                    "name": "",
                    "type": "bytes"
                }
            ],
            "name": "usedSigs",
            "outputs": [
                {
                    "internalType": "bool",
                    "name": "",
                    "type": "bool"
                }
            ],
            "stateMutability": "view",
            "type": "function"
        },
        {
            "inputs": [
                {
                    "internalType": "address",
                    "name": "_owner",
                    "type": "address"
                }
            ],
            "name": "walletOfOwner",
            "outputs": [
                {
                    "internalType": "uint256[]",
                    "name": "",
                    "type": "uint256[]"
                }
            ],
            "stateMutability": "view",
            "type": "function"
        },
        {
            "inputs": [],
            "name": "withdraw",
            "outputs": [],
            "stateMutability": "nonpayable",
            "type": "function"
        },
        {
            "inputs": [
                {
                    "internalType": "contract IERC20",
                    "name": "token",
                    "type": "address"
                }
            ],
            "name": "withdrawERC20",
            "outputs": [],
            "stateMutability": "nonpayable",
            "type": "function"
        }
    ],
    "bytecode": "60806040526010805460ff191660c81790553480156200001e57600080fd5b506200002a3362000030565b62000082565b600c80546001600160a01b038381166001600160a01b0319831681179093556040519116919082907f8be0079c531659141344cd1fd0a4f28419497f9722a3daafe3b4186f6b6457e090600090a35050565b61412680620000926000396000f3fe6080604052600436106102c85760003560e01c8063715018a611610175578063b0c1e30b116100dc578063c87b56dd11610095578063e985e9c51161006f578063e985e9c514610917578063ee35392914610960578063f2fde38b146109b3578063f4f3b200146109d357600080fd5b8063c87b56dd146108b8578063cd3293de146108d8578063d68d3c8e1461090457600080fd5b8063b0c1e30b146107d3578063b6e66ee3146107e6578063b88d4fde1461082f578063ba6cd8211461084f578063c225948314610885578063c234220d146108a557600080fd5b806395d89b411161012e57806395d89b41146107145780639ebd36f3146107405780639fd6db121461076e578063a22cb4651461078d578063a6353372146107ad578063a71bbebe146107c057600080fd5b8063715018a614610648578063773e511a1461065d5780637d55094d146106705780638584fc84146106855780638a41bd6d146106c05780638da5cb5b146106f657600080fd5b80633ccfd60b116102345780634dcb2b3f116101ed5780636247f175116101c75780636247f175146105d35780636352211e146105f35780636c0360eb1461061357806370a082311461062857600080fd5b80634dcb2b3f1461057357806355f804b3146105935780635fc13318146105b357600080fd5b80633ccfd60b146104d857806342842e0e146104ed578063436024ac1461050d578063438b6300146105205780634c8c4b85146105405780634cd635eb1461055357600080fd5b806314c791a61161028657806314c791a6146103d957806318160ddd146103ee57806318cae2691461040457806320f6fe611461044c57806323b872dd146104795780632a55205a1461049957600080fd5b8062e58d2f146102cd57806301ffc9a714610300578063036e73c81461033057806306fdde0314610345578063081812fc14610381578063095ea7b3146103b9575b600080fd5b3480156102d957600080fd5b506102ed6102e8366004613454565b6109f3565b6040519081526020015b60405180910390f35b34801561030c57600080fd5b5061032061031b366004613483565b610a31565b60405190151581526020016102f7565b61034361033e36600461355c565b610a56565b005b34801561035157600080fd5b5060408051808201909152600a8152694d656b6120576f6c667360b01b60208201525b6040516102f79190613602565b34801561038d57600080fd5b506103a161039c366004613454565b610c82565b6040516001600160a01b0390911681526020016102f7565b3480156103c557600080fd5b506103436103d436600461362a565b610d17565b3480156103e557600080fd5b50610343610e2d565b3480156103fa57600080fd5b506102ed600e5481565b34801561041057600080fd5b5061043761041f366004613656565b60116020526000908152604090205463ffffffff1681565b60405163ffffffff90911681526020016102f7565b34801561045857600080fd5b5061046c610467366004613454565b610e76565b6040516102f79190613673565b34801561048557600080fd5b506103436104943660046136b7565b610fd6565b3480156104a557600080fd5b506104b96104b43660046136f8565b610fe1565b604080516001600160a01b0390931683526020830191909152016102f7565b3480156104e457600080fd5b50610343611090565b3480156104f957600080fd5b506103436105083660046136b7565b611129565b61034361051b3660046136b7565b611144565b34801561052c57600080fd5b5061046c61053b366004613656565b61114f565b61034361054e366004613454565b61121d565b34801561055f57600080fd5b5061034361056e36600461371a565b611298565b34801561057f57600080fd5b5061034361058e3660046137ae565b6114e2565b34801561059f57600080fd5b506103436105ae3660046137d1565b6115af565b3480156105bf57600080fd5b506103a16105ce366004613454565b6115ec565b3480156105df57600080fd5b506103746105ee366004613454565b611699565b3480156105ff57600080fd5b506103a161060e366004613454565b6117a0565b34801561061f57600080fd5b50610374611817565b34801561063457600080fd5b506102ed610643366004613656565b6118a5565b34801561065457600080fd5b5061034361192c565b61034361066b3660046136b7565b611962565b34801561067c57600080fd5b5061034361197d565b34801561069157600080fd5b506103206106a03660046137d1565b805160208183018101805160128252928201919093012091525460ff1681565b3480156106cc57600080fd5b506102ed6106db366004613656565b6001600160a01b031660009081526006602052604090205490565b34801561070257600080fd5b50600c546001600160a01b03166103a1565b34801561072057600080fd5b506040805180820190915260038152624d4b5760e81b6020820152610374565b34801561074c57600080fd5b5061076061075b366004613454565b6119c4565b6040516102f792919061381c565b34801561077a57600080fd5b5060105461032090610100900460ff1681565b34801561079957600080fd5b506103436107a836600461385e565b6119f1565b6103436107bb3660046136f8565b611ab6565b6103436107ce366004613897565b611bb7565b6103436107e13660046138b2565b611bd0565b3480156107f257600080fd5b5061032061080136600461391e565b6001600160a01b03918216600090815260086020908152604080832093909416825291909152205460ff1690565b34801561083b57600080fd5b5061034361084a3660046138b2565b611bf6565b34801561085b57600080fd5b506103a161086a366004613454565b6000908152600760205260409020546001600160a01b031690565b34801561089157600080fd5b506010546103209062010000900460ff1681565b6103436108b336600461362a565b611c02565b3480156108c457600080fd5b506103746108d3366004613454565b611c2f565b3480156108e457600080fd5b506010546108f29060ff1681565b60405160ff90911681526020016102f7565b6103436109123660046136f8565b611d26565b34801561092357600080fd5b5061032061093236600461391e565b6001600160a01b03918216600090815260036020908152604080832093909416825291909152205460ff1690565b34801561096c57600080fd5b5061034361097b36600461385e565b3360009081526008602090815260408083206001600160a01b0395909516835293905291909120805460ff1916911515919091179055565b3480156109bf57600080fd5b506103436109ce366004613656565b611e7e565b3480156109df57600080fd5b506103436109ee366004613656565b611f16565b60008181526009602090815260408083205460059092528220546001600160a01b0316158015610a2257508015155b610a2b57600080fd5b92915050565b60006001600160e01b0319821663152a902d60e11b1480610a2b5750610a2b8261202a565b610a6e63ffffffff831667016345785d8a0000613962565b3414610acd5760405162461bcd60e51b8152602060048201526024808201527f457468657265756d20616d6f756e742073656e74206973206e6f7420636f72726044820152636563742160e01b60648201526084015b60405180910390fd5b601054610100900460ff16610c1e5760105462010000900460ff16610b345760405162461bcd60e51b815260206004820152601760248201527f4d696e74696e67206973206e6f7420656e61626c6564210000000000000000006044820152606401610ac4565b6103e88263ffffffff16600e54610b4b9190613981565b10610b985760405162461bcd60e51b815260206004820152601f60248201527f526571756573742077696c6c20657863656564206d617820737570706c7921006044820152606401610ac4565b610bc433604051806040016040528060098152602001681dda1a5d195b1a5cdd60ba1b8152508361204f565b610c105760405162461bcd60e51b815260206004820152601860248201527f55736572206973206e6f742077686974656c69737465642100000000000000006044820152606401610ac4565b610c1a33836120fd565b5050565b6122b88263ffffffff16600e54610c359190613981565b10610c105760405162461bcd60e51b815260206004820152601f60248201527f526571756573742077696c6c20657863656564206d617820737570706c7921006044820152606401610ac4565b6000818152602081905260408120546001600160a01b0316610cfb5760405162461bcd60e51b815260206004820152602c60248201527f4552433732313a20617070726f76656420717565727920666f72206e6f6e657860448201526b34b9ba32b73a103a37b5b2b760a11b6064820152608401610ac4565b506000908152600260205260409020546001600160a01b031690565b6000610d22826117a0565b9050806001600160a01b0316836001600160a01b03161415610d905760405162461bcd60e51b815260206004820152602160248201527f4552433732313a20617070726f76616c20746f2063757272656e74206f776e656044820152603960f91b6064820152608401610ac4565b336001600160a01b0382161480610dac5750610dac8133610932565b610e1e5760405162461bcd60e51b815260206004820152603860248201527f4552433732313a20617070726f76652063616c6c6572206973206e6f74206f7760448201527f6e6572206e6f7220617070726f76656420666f7220616c6c00000000000000006064820152608401610ac4565b610e28838361218e565b505050565b600c546001600160a01b03163314610e575760405162461bcd60e51b8152600401610ac490613999565b6010805462ff0000198116620100009182900460ff1615909102179055565b60408051600680825260e08201909252606091600091906020820160c080368337019050506000848152600a60205260408120919250015481600081518110610ec157610ec16139ce565b6020908102919091018101919091526000848152600a909152604090206001015481600181518110610ef557610ef56139ce565b6020908102919091018101919091526000848152600a909152604090206002015481600281518110610f2957610f296139ce565b6020908102919091018101919091526000848152600a909152604090206003015481600381518110610f5d57610f5d6139ce565b6020908102919091018101919091526000848152600a909152604090206004015481600481518110610f9157610f916139ce565b6020908102919091018101919091526000848152600a909152604090206005015481600581518110610fc557610fc56139ce565b602090810291909101015292915050565b610e288383836121fc565b60008281526020819052604081205481906001600160a01b031661106d5760405162461bcd60e51b815260206004820152603a60248201527f45524332393831526f79616c74795374616e646172643a20526f79616c74792060448201527f696e666f20666f72206e6f6e6578697374656e7420746f6b656e0000000000006064820152608401610ac4565b600c546001600160a01b0316611084600a856139fa565b915091505b9250929050565b600c546001600160a01b031633146110ba5760405162461bcd60e51b8152600401610ac490613999565b60405160009033904780156108fc029184818181858888f193505050509050806111265760405162461bcd60e51b815260206004820152601b60248201527f5061796d656e7420646964206e6f7420676f207468726f7567682100000000006044820152606401610ac4565b50565b610e2883838360405180602001604052806000815250611bf6565b610e288383836123ab565b6060600061115c836118a5565b905060008167ffffffffffffffff811115611179576111796134b9565b6040519080825280602002602001820160405280156111a2578160200160208202803683370190505b5090506000805b600e54811015611213576000818152602081905260409020546001600160a01b038781169116141561120157808383815181106111e8576111e86139ce565b6020908102919091010152816111fd81613a0e565b9250505b8061120b81613a0e565b9150506111a9565b5090949350505050565b6000611228826109f3565b90506000611235826117a0565b9050611242813384612472565b60008381526009602090815260408083208390556005825280832080546001600160a01b0319166001600160a01b03861690811790915583526006909152812080549161128e83613a0e565b9190505550505050565b60105460ff166112ea5760405162461bcd60e51b815260206004820152601f60248201527f4e6f206d6f726520746f6b656e73206c65667420696e207265736572766521006044820152606401610ac4565b601283836040516112fc929190613a29565b9081526040519081900360200190205460ff16156113685760405162461bcd60e51b8152602060048201526024808201527f43616e206f6e6c7920757365206120636c61696d207369676e6174757265206f6044820152636e63652160e01b6064820152608401610ac4565b6113a9338285858080601f01602080910402602001604051908101604052809392919081815260200183838082843760009201919091525061204f92505050565b6114045760405162461bcd60e51b815260206004820152602660248201527f55736572206e6f7420656c696761626c6520746f20636c61696d20616e2061696044820152657264726f702160d01b6064820152608401610ac4565b600160128484604051611418929190613a29565b908152604051908190036020019020805491151560ff19909216919091179055600d54611446903390612541565b600d805490600061145683613a0e565b9091555050600e805490600061146b83613a0e565b9091555050336000908152601160205260408120805463ffffffff169161149183613a39565b825463ffffffff9182166101009390930a9283029190920219909116179055506010805460ff169060006114c483613a5d565b91906101000a81548160ff021916908360ff16021790555050505050565b600c546001600160a01b0316331461150c5760405162461bcd60e51b8152600401610ac490613999565b60105460ff8083169116101561156f5760405162461bcd60e51b815260206004820152602260248201527f4e6f7420656e6f75676820746f6b656e73206c65667420696e20726573657276604482015261652160f01b6064820152608401610ac4565b61157c338260ff166120fd565b6010805482919060009061159490849060ff16613a7a565b92506101000a81548160ff021916908360ff16021790555050565b600c546001600160a01b031633146115d95760405162461bcd60e51b8152600401610ac490613999565b8051610c1a90600f9060208401906133bb565b60008181526005602090815260408083205460099092528220546001600160a01b039091169015801561162757506001600160a01b03811615155b610a2b5760405162461bcd60e51b815260206004820152603760248201527f4552433a20417474726962757465206973206174616368656420746f2061207460448201527f6f6b656e206f722064656f73206e6f74206578697374210000000000000000006064820152608401610ac4565b60408051602080820183526000808352848152600a909152828120835161010081019485905260609490919060089082845b8154815260200190600101908083116116cb575050505050905060005b60088110156117975782511561171b57826040516020016117099190613ab9565b60405160208183030381529060405292505b82816004848460088110611731576117316139ce565b602002015181548110611746576117466139ce565b9060005260206000200160000160019054906101000a900460ff1660405160200161177393929190613ade565b6040516020818303038152906040529250808061178f90613a0e565b9150506116e8565b50909392505050565b6000818152602081905260408120546001600160a01b031680610a2b5760405162461bcd60e51b815260206004820152602960248201527f4552433732313a206f776e657220717565727920666f72206e6f6e657869737460448201526832b73a103a37b5b2b760b91b6064820152608401610ac4565b600f805461182490613b4a565b80601f016020809104026020016040519081016040528092919081815260200182805461185090613b4a565b801561189d5780601f106118725761010080835404028352916020019161189d565b820191906000526020600020905b81548152906001019060200180831161188057829003601f168201915b505050505081565b60006001600160a01b0382166119105760405162461bcd60e51b815260206004820152602a60248201527f4552433732313a2062616c616e636520717565727920666f7220746865207a65604482015269726f206164647265737360b01b6064820152608401610ac4565b506001600160a01b031660009081526001602052604090205490565b600c546001600160a01b031633146119565760405162461bcd60e51b8152600401610ac490613999565b611960600061255b565b565b610e2883838360405180602001604052806000815250611bd0565b600c546001600160a01b031633146119a75760405162461bcd60e51b8152600401610ac490613999565b6010805461ff001981166101009182900460ff1615909102179055565b600481815481106119d457600080fd5b60009182526020909120015460ff80821692506101009091041682565b6001600160a01b038216331415611a4a5760405162461bcd60e51b815260206004820152601960248201527f4552433732313a20617070726f766520746f2063616c6c6572000000000000006044820152606401610ac4565b3360008181526003602090815260408083206001600160a01b03871680855290835292819020805460ff191686151590811790915590519081529192917f17307eab39ab6107e8899845ad3d59bd9653f200f220920489ca2b5937696c31910160405180910390a35050565b6000611ac1836115ec565b9050611acc826117a0565b6001600160a01b0316816001600160a01b031614611ae957600080fd5b611af48133856125ad565b611aff813384612472565b600083815260056020908152604080832080546001600160a01b0319908116909155600783528184208054909116905533835260069091528120805491611b4583613b85565b90915550506000838152600960209081526040808320859055848352600a9091529020600480548592919083908110611b8057611b806139ce565b60009182526020909120015460ff166007811115611ba057611ba0613806565b60088110611bb057611bb06139ce565b0155505050565b6111268160405180602001604052806000815250610a56565b611bdb8484846123ab565b611be78484848461266e565b611bf057600080fd5b50505050565b611bf0848484846127b2565b6000611c0d826115ec565b9050336001600160a01b03821614611c2457600080fd5b610e288184846127e5565b6000818152602081905260409020546060906001600160a01b0316611cae5760405162461bcd60e51b815260206004820152602f60248201527f4552433732314d657461646174613a2055524920717565727920666f72206e6f60448201526e3732bc34b9ba32b73a103a37b5b2b760891b6064820152608401610ac4565b6000611cc1611cbc84612841565b61292a565b9050611cff611ccf84612955565b611cd885611699565b83604051602001611ceb93929190613b9c565b604051602081830303815290604052612a53565b604051602001611d0f9190613d05565b604051602081830303815290604052915050919050565b6000611d31836115ec565b9050611d3c826117a0565b6001600160a01b0316816001600160a01b031614611d5957600080fd5b611d648133856125ad565b611d6f813384612472565b600060048481548110611d8457611d846139ce565b600091825260208220015460ff169150816007811115611da657611da6613806565b11611db057600080fd5b6000838152600a60205260408120826007811115611dd057611dd0613806565b60088110611de057611de06139ce565b015460008181526009602090815260408083208390556005825280832080546001600160a01b0389166001600160a01b03199182161790915589845281842080548216905560078084528285208054909216909155888452600a9092529091209192508691908490811115611e5757611e57613806565b60088110611e6757611e676139ce565b015550505060009182526009602052604090912055565b600c546001600160a01b03163314611ea85760405162461bcd60e51b8152600401610ac490613999565b6001600160a01b038116611f0d5760405162461bcd60e51b815260206004820152602660248201527f4f776e61626c653a206e6577206f776e657220697320746865207a65726f206160448201526564647265737360d01b6064820152608401610ac4565b6111268161255b565b600c546001600160a01b03163314611f405760405162461bcd60e51b8152600401610ac490613999565b6040516370a0823160e01b81523060048201526001600160a01b0382169063a9059cbb90339083906370a0823190602401602060405180830381865afa158015611f8e573d6000803e3d6000fd5b505050506040513d601f19601f82011682018060405250810190611fb29190613d4a565b6040516001600160e01b031960e085901b1681526001600160a01b03909216600483015260248201526044016020604051808303816000875af1158015611ffd573d6000803e3d6000fd5b505050506040513d601f19601f820116820180604052508101906120219190613d63565b61112657600080fd5b60006001600160e01b03198216636db3821960e01b1480610a2b5750610a2b82612bb9565b6000612063600c546001600160a01b031690565b6001600160a01b03166120eb6120e58686604051602001612085929190613d80565b60408051601f1981840301815282825280516020918201207f19457468657265756d205369676e6564204d6573736167653a0a33320000000084830152603c8085019190915282518085039091018152605c909301909152815191012090565b84612c09565b6001600160a01b031614949350505050565b6001600160a01b0382166000908152601160205260408120805483929061212b90849063ffffffff16613db8565b92506101000a81548163ffffffff021916908363ffffffff16021790555060005b8163ffffffff16811015610e285761216683600d54612541565b600d805490600061217683613a0e565b9190505550808061218690613a0e565b91505061214c565b600081815260026020526040902080546001600160a01b0319166001600160a01b03841690811790915581906121c3826117a0565b6001600160a01b03167f8c5be1e5ebec7d5bd14f71427d1e84f3dd0314c0f7b2291e5b200ac8c7c3b92560405160405180910390a45050565b826001600160a01b031661220f826117a0565b6001600160a01b0316146122775760405162461bcd60e51b815260206004820152602960248201527f4552433732313a207472616e73666572206f6620746f6b656e2074686174206960448201526839903737ba1037bbb760b91b6064820152608401610ac4565b6001600160a01b0382166122d95760405162461bcd60e51b8152602060048201526024808201527f4552433732313a207472616e7366657220746f20746865207a65726f206164646044820152637265737360e01b6064820152608401610ac4565b6122e4833383612472565b6122ef60008261218e565b6001600160a01b0383166000908152600160208190526040822080549192909161231a908490613de0565b90915550506001600160a01b0382166000908152600160208190526040822080549192909161234a908490613981565b909155505060008181526020819052604080822080546001600160a01b0319166001600160a01b0386811691821790925591518493918716917fddf252ad1be2c89b69c2b068fc378daa952ba7f163c4a11628f55a4df523b3ef91a4505050565b6001600160a01b0382166123be57600080fd5b826001600160a01b03166123d1826115ec565b6001600160a01b0316146123e457600080fd5b6123ef8333836125ad565b6124036123fb826115ec565b6000836127e5565b600081815260056020908152604080832080546001600160a01b0319166001600160a01b0387811691909117909155861683526006909152812080549161244983613b85565b90915550506001600160a01b038216600090815260066020526040812080549161128e83613a0e565b826001600160a01b0316826001600160a01b031614806124ab5750816001600160a01b03166124a082610c82565b6001600160a01b0316145b806124db57506001600160a01b0380841660009081526003602090815260408083209386168352929052205460ff165b610e285760405162461bcd60e51b815260206004820152603160248201527f4552433732313a207472616e736665722063616c6c6572206973206e6f74206f6044820152701ddb995c881b9bdc88185c1c1c9bdd9959607a1b6064820152608401610ac4565b610c1a828260405180602001604052806000815250612c2d565b600c80546001600160a01b038381166001600160a01b0319831681179093556040519116919082907f8be0079c531659141344cd1fd0a4f28419497f9722a3daafe3b4186f6b6457e090600090a35050565b816001600160a01b0316836001600160a01b031614806125e657506000818152600760205260409020546001600160a01b038381169116145b8061261657506001600160a01b0380841660009081526008602090815260408083209386168352929052205460ff165b610e285760405162461bcd60e51b8152602060048201526024808201527f4552433a2043616c6c6572206973206e6f7420612076616c6964206f70657261604482015263746f722160e01b6064820152608401610ac4565b60006001600160a01b0384163b156127a65760405163057613d560e11b81526001600160a01b03851690630aec27aa906126b2903390899088908890600401613df7565b6020604051808303816000875af19250505080156126ed575060408051601f3d908101601f191682019092526126ea91810190613e2a565b60015b61278c573d80801561271b576040519150601f19603f3d011682016040523d82523d6000602084013e612720565b606091505b5080516127845760405162461bcd60e51b815260206004820152602c60248201527f4552433a207472616e7366657220746f206e6f6e20455243526563656976657260448201526b1034b6b83632b6b2b73a32b960a11b6064820152608401610ac4565b805181602001fd5b6001600160e01b03191663057613d560e11b1490506127aa565b5060015b949350505050565b6127bd8484846121fc565b6127c984848484612c60565b611bf05760405162461bcd60e51b8152600401610ac490613e47565b60008181526007602052604080822080546001600160a01b0319166001600160a01b0386811691821790925591518493918716917f97a0ed7e02c68dbfcd7129a5908286042b5fe7d76fe557645c1b054f42ae812d91a4505050565b606060006040518060800160405280604381526020016140ae604391396000848152600a602052604080822081516101008101928390529394509192919060089082845b815481526020019060010190808311612885575050505050905060005b600881101561290057826128cb8383600881106128c1576128c16139ce565b6020020151612d4b565b6040516020016128dc929190613e99565b604051602081830303815290604052925080806128f890613a0e565b9150506128a2565b50816040516020016129129190613f0b565b60408051601f19818403018152919052949350505050565b6060600061294283604051602001611ceb9190613f36565b905080604051602001611d0f9190613f52565b6060816129795750506040805180820190915260018152600360fc1b602082015290565b8160005b81156129a3578061298d81613a0e565b915061299c9050600a836139fa565b915061297d565b60008167ffffffffffffffff8111156129be576129be6134b9565b6040519080825280601f01601f1916602001820160405280156129e8576020820181803683370190505b5090505b84156127aa576129fd600183613de0565b9150612a0a600a86613f97565b612a15906030613981565b60f81b818381518110612a2a57612a2a6139ce565b60200101906001600160f81b031916908160001a905350612a4c600a866139fa565b94506129ec565b805160609080612a73575050604080516020810190915260008152919050565b60006003612a82836002613981565b612a8c91906139fa565b612a97906004613962565b90506000612aa6826020613981565b67ffffffffffffffff811115612abe57612abe6134b9565b6040519080825280601f01601f191660200182016040528015612ae8576020820181803683370190505b509050600060405180606001604052806040815260200161406e604091399050600181016020830160005b86811015612b74576003818a01810151603f601282901c8116860151600c83901c8216870151600684901c831688015192909316870151600891821b60ff94851601821b92841692909201901b91160160e01b835260049092019101612b13565b506003860660018114612b8e5760028114612b9f57612bab565b613d3d60f01b600119830152612bab565b603d60f81b6000198301525b505050918152949350505050565b60006001600160e01b031982166380ac58cd60e01b1480612bea57506001600160e01b03198216635b5e139f60e01b145b80610a2b57506301ffc9a760e01b6001600160e01b0319831614610a2b565b6000806000612c188585612f33565b91509150612c2581612fa0565b509392505050565b612c37838361315b565b612c446000848484612c60565b610e285760405162461bcd60e51b8152600401610ac490613e47565b60006001600160a01b0384163b156127a657604051630a85bd0160e11b81526001600160a01b0385169063150b7a0290612ca4903390899088908890600401613df7565b6020604051808303816000875af1925050508015612cdf575060408051601f3d908101601f19168201909252612cdc91810190613e2a565b60015b612d31573d808015612d0d576040519150601f19603f3d011682016040523d82523d6000602084013e612d12565b606091505b5080516127845760405162461bcd60e51b8152600401610ac490613e47565b6001600160e01b031916630a85bd0160e11b1490506127aa565b6000818152600560205260409020546060906001600160a01b031615801590612d81575060008281526009602052604090205415155b612dde5760405162461bcd60e51b815260206004820152602860248201527f4552433a2055524920717565727920666f72206e6f6e6578697374656e742061604482015267747472696275746560c01b6064820152608401610ac4565b6000600b8054612ded90613b4a565b80601f0160208091040260200160405190810160405280929190818152602001828054612e1990613b4a565b8015612e665780601f10612e3b57610100808354040283529160200191612e66565b820191906000526020600020905b815481529060010190602001808311612e4957829003601f168201915b505050505090506000815111612ec5578060048481548110612e8a57612e8a6139ce565b60009182526020918290200154604051612eb1939260ff90921691600360fc1b9101613fd0565b604051602081830303815290604052612f2c565b8060048481548110612ed957612ed96139ce565b6000918252602090912001546004805460ff9092169186908110612eff57612eff6139ce565b9060005260206000200160000160019054906101000a900460ff16604051602001611d0f9392919061401d565b9392505050565b600080825160411415612f6a5760208301516040840151606085015160001a612f5e8782858561329f565b94509450505050611089565b825160401415612f945760208301516040840151612f8986838361338c565b935093505050611089565b50600090506002611089565b6000816004811115612fb457612fb4613806565b1415612fbd5750565b6001816004811115612fd157612fd1613806565b141561301f5760405162461bcd60e51b815260206004820152601860248201527f45434453413a20696e76616c6964207369676e617475726500000000000000006044820152606401610ac4565b600281600481111561303357613033613806565b14156130815760405162461bcd60e51b815260206004820152601f60248201527f45434453413a20696e76616c6964207369676e6174757265206c656e677468006044820152606401610ac4565b600381600481111561309557613095613806565b14156130ee5760405162461bcd60e51b815260206004820152602260248201527f45434453413a20696e76616c6964207369676e6174757265202773272076616c604482015261756560f01b6064820152608401610ac4565b600481600481111561310257613102613806565b14156111265760405162461bcd60e51b815260206004820152602260248201527f45434453413a20696e76616c6964207369676e6174757265202776272076616c604482015261756560f01b6064820152608401610ac4565b6001600160a01b0382166131b15760405162461bcd60e51b815260206004820181905260248201527f4552433732313a206d696e7420746f20746865207a65726f20616464726573736044820152606401610ac4565b6000818152602081905260409020546001600160a01b0316156132165760405162461bcd60e51b815260206004820152601c60248201527f4552433732313a20746f6b656e20616c7265616479206d696e746564000000006044820152606401610ac4565b6001600160a01b03821660009081526001602081905260408220805491929091613241908490613981565b909155505060008181526020819052604080822080546001600160a01b0319166001600160a01b03861690811790915590518392907fddf252ad1be2c89b69c2b068fc378daa952ba7f163c4a11628f55a4df523b3ef908290a45050565b6000807f7fffffffffffffffffffffffffffffff5d576e7357a4501ddfe92f46681b20a08311156132d65750600090506003613383565b8460ff16601b141580156132ee57508460ff16601c14155b156132ff5750600090506004613383565b6040805160008082526020820180845289905260ff881692820192909252606081018690526080810185905260019060a0016020604051602081039080840390855afa158015613353573d6000803e3d6000fd5b5050604051601f1901519150506001600160a01b03811661337c57600060019250925050613383565b9150600090505b94509492505050565b6000806001600160ff1b03831660ff84901c601b016133ad8782888561329f565b935093505050935093915050565b8280546133c790613b4a565b90600052602060002090601f0160209004810192826133e9576000855561342f565b82601f1061340257805160ff191683800117855561342f565b8280016001018555821561342f579182015b8281111561342f578251825591602001919060010190613414565b5061343b92915061343f565b5090565b5b8082111561343b5760008155600101613440565b60006020828403121561346657600080fd5b5035919050565b6001600160e01b03198116811461112657600080fd5b60006020828403121561349557600080fd5b8135612f2c8161346d565b803563ffffffff811681146134b457600080fd5b919050565b634e487b7160e01b600052604160045260246000fd5b600082601f8301126134e057600080fd5b813567ffffffffffffffff808211156134fb576134fb6134b9565b604051601f8301601f19908116603f01168101908282118183101715613523576135236134b9565b8160405283815286602085880101111561353c57600080fd5b836020870160208301376000602085830101528094505050505092915050565b6000806040838503121561356f57600080fd5b613578836134a0565b9150602083013567ffffffffffffffff81111561359457600080fd5b6135a0858286016134cf565b9150509250929050565b60005b838110156135c55781810151838201526020016135ad565b83811115611bf05750506000910152565b600081518084526135ee8160208601602086016135aa565b601f01601f19169290920160200192915050565b602081526000612f2c60208301846135d6565b6001600160a01b038116811461112657600080fd5b6000806040838503121561363d57600080fd5b823561364881613615565b946020939093013593505050565b60006020828403121561366857600080fd5b8135612f2c81613615565b6020808252825182820181905260009190848201906040850190845b818110156136ab5783518352928401929184019160010161368f565b50909695505050505050565b6000806000606084860312156136cc57600080fd5b83356136d781613615565b925060208401356136e781613615565b929592945050506040919091013590565b6000806040838503121561370b57600080fd5b50508035926020909101359150565b60008060006040848603121561372f57600080fd5b833567ffffffffffffffff8082111561374757600080fd5b818601915086601f83011261375b57600080fd5b81358181111561376a57600080fd5b87602082850101111561377c57600080fd5b60209283019550935090850135908082111561379757600080fd5b506137a4868287016134cf565b9150509250925092565b6000602082840312156137c057600080fd5b813560ff81168114612f2c57600080fd5b6000602082840312156137e357600080fd5b813567ffffffffffffffff8111156137fa57600080fd5b6127aa848285016134cf565b634e487b7160e01b600052602160045260246000fd5b604081016008841061383e57634e487b7160e01b600052602160045260246000fd5b92815260ff9190911660209091015290565b801515811461112657600080fd5b6000806040838503121561387157600080fd5b823561387c81613615565b9150602083013561388c81613850565b809150509250929050565b6000602082840312156138a957600080fd5b612f2c826134a0565b600080600080608085870312156138c857600080fd5b84356138d381613615565b935060208501356138e381613615565b925060408501359150606085013567ffffffffffffffff81111561390657600080fd5b613912878288016134cf565b91505092959194509250565b6000806040838503121561393157600080fd5b823561393c81613615565b9150602083013561388c81613615565b634e487b7160e01b600052601160045260246000fd5b600081600019048311821515161561397c5761397c61394c565b500290565b600082198211156139945761399461394c565b500190565b6020808252818101527f4f776e61626c653a2063616c6c6572206973206e6f7420746865206f776e6572604082015260600190565b634e487b7160e01b600052603260045260246000fd5b634e487b7160e01b600052601260045260246000fd5b600082613a0957613a096139e4565b500490565b6000600019821415613a2257613a2261394c565b5060010190565b8183823760009101908152919050565b600063ffffffff80831681811415613a5357613a5361394c565b6001019392505050565b600060ff821680613a7057613a7061394c565b6000190192915050565b600060ff821660ff841680821015613a9457613a9461394c565b90039392505050565b60008151613aaf8185602086016135aa565b9290920192915050565b60008251613acb8184602087016135aa565b600b60fa1b920191825250600101919050565b60008451613af08184602089016135aa565b6e3d913a3930b4ba2fba3cb832911d1160891b920191825250600f8101929092526a1116113b30b63ab2911d1160a91b602f83015260f81b6001600160f81b031916603a82015261227d60f01b603b820152603d01919050565b600181811c90821680613b5e57607f821691505b60208210811415613b7f57634e487b7160e01b600052602260045260246000fd5b50919050565b600081613b9457613b9461394c565b506000190190565b607b60f81b815274226e616d65223a20224d656b6120576f6c6673202360581b60018201528351600090613bd78160168501602089016135aa565b61088b60f21b6016918401918201527f226465736372697074696f6e223a20224c6f72656d20697073756d20646f6c6f60188201527f722073697420616d65742c20636f6e736563746574757220616469706973636960388201527f6e6720656c69742c2073656420646f20656975736d6f642074656d706f72206960588201527f6e6369646964756e74207574206c61626f726520657420646f6c6f7265206d6160788201526c19db9848185b1a5c5d584b888b609a1b60988201526e2261747472696275746573223a205b60881b60a5820152613cfb613cee613ce8613cd3613cc560b486018a613a9d565b61174b60f21b815260020190565b681134b6b0b3b29d101160b91b815260090190565b86613a9d565b607d60f81b815260010190565b9695505050505050565b7f646174613a6170706c69636174696f6e2f6a736f6e3b6261736536342c000000815260008251613d3d81601d8501602087016135aa565b91909101601d0192915050565b600060208284031215613d5c57600080fd5b5051919050565b600060208284031215613d7557600080fd5b8151612f2c81613850565b6bffffffffffffffffffffffff198360601b16815260008251613daa8160148501602087016135aa565b919091016014019392505050565b600063ffffffff808316818516808303821115613dd757613dd761394c565b01949350505050565b600082821015613df257613df261394c565b500390565b6001600160a01b0385811682528416602082015260408101839052608060608201819052600090613cfb908301846135d6565b600060208284031215613e3c57600080fd5b8151612f2c8161346d565b60208082526032908201527f4552433732313a207472616e7366657220746f206e6f6e20455243373231526560408201527131b2b4bb32b91034b6b83632b6b2b73a32b960711b606082015260800190565b60008351613eab8184602088016135aa565b6c1e34b6b0b3b290343932b31e9160991b9083019081528351613ed581600d8401602088016135aa565b7f22206865696768743d2232373030222077696474683d2232333130222f3e0000600d9290910191820152602b01949350505050565b60008251613f1d8184602087016135aa565b663c2f7376673e3b60c81b920191825250600701919050565b60008251613f488184602087016135aa565b9190910192915050565b7f646174613a696d6167652f7376672b786d6c3b6261736536342c000000000000815260008251613f8a81601a8501602087016135aa565b91909101601a0192915050565b600082613fa657613fa66139e4565b500690565b60088110613fc957634e487b7160e01b600052602160045260246000fd5b60f81b9052565b60008451613fe28184602089016135aa565b602f60f81b90830181815290613ffb6001830187613fab565b60028201526001600160f81b0319939093166003840152505060040192915050565b6000845161402f8184602089016135aa565b602f60f81b908301818152906140486001830187613fab565b600282015260f89390931b6001600160f81b031916600384015250506004019291505056fe4142434445464748494a4b4c4d4e4f505152535455565758595a6162636465666768696a6b6c6d6e6f707172737475767778797a303132333435363738392b2f3c7376672077696474683d223237303022206865696768743d22323331302220786d6c6e733d22687474703a2f2f7777772e77332e6f72672f323030302f737667223ea2646970667358221220f184d944ff7f77e872f04526efc7e2d58c4d4b02570cd6e1f11fc734979ad9ac64736f6c634300080b0033",
    "sourcePath": "d:/TheWolfPack/MekaWolfsContracts/contracts/Sales.sol",
    "compiler": {
        "name": "solc",
        "version": "0.8.11+commit.d7f03943"
    },
    "functionHashes": {
        "addressMintedBalance(address)": "18cae269",
        "approve(address,uint256)": "095ea7b3",
        "approveAttr(address,uint256)": "c234220d",
        "atach(uint256,uint256)": "a6353372",
        "atachedTo(uint256)": "00e58d2f",
        "attrBalanceOf(address)": "8a41bd6d",
        "attrSafeTransferFrom(address,address,uint256)": "773e511a",
        "attrSafeTransferFrom(address,address,uint256,bytes)": "b0c1e30b",
        "attrTransferFrom(address,address,uint256)": "436024ac",
        "attrs(uint256)": "9ebd36f3",
        "attrsOf(uint256)": "20f6fe61",
        "balanceOf(address)": "70a08231",
        "baseURI()": "6c0360eb",
        "dettach(uint256)": "4c8c4b85",
        "freeMint(bytes,string)": "4cd635eb",
        "getApproved(uint256)": "081812fc",
        "getAttrApproved(uint256)": "ba6cd821",
        "isApprovedForAll(address,address)": "e985e9c5",
        "isAttrApprovedForAll(address,address)": "b6e66ee3",
        "mint(uint32)": "a71bbebe",
        "mint(uint32,bytes)": "036e73c8",
        "mintingEnabled()": "9fd6db12",
        "name()": "06fdde03",
        "owner()": "8da5cb5b",
        "ownerMintFromReserve(uint8)": "4dcb2b3f",
        "ownerOf(uint256)": "6352211e",
        "ownerOfAttr(uint256)": "5fc13318",
        "preMintingEnabled()": "c2259483",
        "printAttributes(uint256)": "6247f175",
        "renounceOwnership()": "715018a6",
        "replaceAttr(uint256,uint256)": "d68d3c8e",
        "reserve()": "cd3293de",
        "royaltyInfo(uint256,uint256)": "2a55205a",
        "safeTransferFrom(address,address,uint256)": "42842e0e",
        "safeTransferFrom(address,address,uint256,bytes)": "b88d4fde",
        "setApprovalForAll(address,bool)": "a22cb465",
        "setAttrApprovalForAll(address,bool)": "ee353929",
        "setBaseURI(string)": "55f804b3",
        "supportsInterface(bytes4)": "01ffc9a7",
        "symbol()": "95d89b41",
        "toggleMinting()": "7d55094d",
        "toggleOnlyWhitelisted()": "14c791a6",
        "tokenURI(uint256)": "c87b56dd",
        "totalSupply()": "18160ddd",
        "transferFrom(address,address,uint256)": "23b872dd",
        "transferOwnership(address)": "f2fde38b",
        "usedSigs(bytes)": "8584fc84",
        "walletOfOwner(address)": "438b6300",
        "withdraw()": "3ccfd60b",
        "withdrawERC20(address)": "f4f3b200"
    },
    "gasEstimates": {
        "creation": {
            "codeDepositCost": "3335600",
            "executionCost": "53783",
            "totalCost": "3389383"
        },
        "external": {
            "addressMintedBalance(address)": "2618",
            "approve(address,uint256)": "infinite",
            "approveAttr(address,uint256)": "31246",
            "atach(uint256,uint256)": "infinite",
            "atachedTo(uint256)": "4725",
            "attrBalanceOf(address)": "2654",
            "attrSafeTransferFrom(address,address,uint256)": "infinite",
            "attrSafeTransferFrom(address,address,uint256,bytes)": "infinite",
            "attrTransferFrom(address,address,uint256)": "infinite",
            "attrs(uint256)": "4754",
            "attrsOf(uint256)": "infinite",
            "balanceOf(address)": "2705",
            "baseURI()": "infinite",
            "dettach(uint256)": "infinite",
            "freeMint(bytes,string)": "infinite",
            "getApproved(uint256)": "4830",
            "getAttrApproved(uint256)": "2588",
            "isApprovedForAll(address,address)": "infinite",
            "isAttrApprovedForAll(address,address)": "infinite",
            "mint(uint32)": "infinite",
            "mint(uint32,bytes)": "infinite",
            "mintingEnabled()": "2410",
            "name()": "infinite",
            "owner()": "2487",
            "ownerMintFromReserve(uint8)": "infinite",
            "ownerOf(uint256)": "2648",
            "ownerOfAttr(uint256)": "4886",
            "preMintingEnabled()": "2454",
            "printAttributes(uint256)": "infinite",
            "renounceOwnership()": "28163",
            "replaceAttr(uint256,uint256)": "infinite",
            "reserve()": "2402",
            "royaltyInfo(uint256,uint256)": "4917",
            "safeTransferFrom(address,address,uint256)": "infinite",
            "safeTransferFrom(address,address,uint256,bytes)": "infinite",
            "setApprovalForAll(address,bool)": "infinite",
            "setAttrApprovalForAll(address,bool)": "infinite",
            "setBaseURI(string)": "infinite",
            "supportsInterface(bytes4)": "infinite",
            "symbol()": "infinite",
            "toggleMinting()": "26635",
            "toggleOnlyWhitelisted()": "26591",
            "tokenURI(uint256)": "infinite",
            "totalSupply()": "2352",
            "transferFrom(address,address,uint256)": "infinite",
            "transferOwnership(address)": "infinite",
            "usedSigs(bytes)": "infinite",
            "walletOfOwner(address)": "infinite",
            "withdraw()": "infinite",
            "withdrawERC20(address)": "infinite"
        },
        "internal": {
            "_mintLoop(address,uint32)": "infinite",
            "_validiateSig(address,string memory,bytes memory)": "infinite"
        }
    }
}